:020000040800F2
:1000000020040020450100081D080008FD04000828
:1000100019080008A1010008B30D00080000000045
:100020000000000000000000000000009D09000822
:10003000A501000800000000A5080008890A0008C2
:100040005F0100085F0100085F0100085F01000810
:100050005F0100085F010008A9010008EF01000826
:10006000F1010008350200087D0200085F01000868
:100070005F0100085F0100085F0100085F010008E0
:100080005F0100085F0100085F0100085F010008D0
:100090005F0100085F0100085F010008C10200085D
:1000A0005F0100085F0100085F0100085F010008B0
:1000B0005F0100085F0100085F0100085F010008A0
:1000C0005F0100085F0100085F0100085F01000890
:1000D0005F010008ED0A00085F0100085F010008E9
:1000E000ED0100085F0100085F0100085F010008E2
:1000F0005F0100085F0100085F0100085F01000860
:100100005F0100085F0100085F0100085F0100084F
:100110005F0100085F0100085F0100085F0100083F
:100120005F0100085F0100085F0100085F0100082F
:10013000DFF80CD000F018F8004800472D0E00083A
:10014000200400200648804706480047FEE7FEE7F7
:10015000FEE7FEE7FEE7FEE7FEE7FEE7FEE7FEE777
:100160008D0A000831010008064C074D06E0E068E2
:1001700040F0010394E8070098471034AC42F6D3EE
:10018000FFF7DAFF900E0008B00E000810B500F07F
:100190007DFC00F0CDFC00F09FFA00F0B1F910BD3D
:1001A00000BFFEE77047000010B5012000F090F896
:1001B000012818D100F086F80A2000F011FB012177
:1001C000094800F08EF9012806D10A2000F008FB4A
:1001D0000121002000F098FA00BF0121024800F040
:1001E00080F90028F9D110BD000801407047704720
:1001F00010B5042000F06CF8012818D1042000F09C
:1002000061F80A2000F0ECFA0421094800F069F9CD
:1002100030B90A2000F0E4FA0121084600F074FA2F
:1002200000BF0421024800F05CF90028F9D010BD9D
:100230000018014010B5082000F04AF8012819D133
:10024000082000F03FF80A2000F0CAFA08210A4806
:1002500000F047F938B90A2000F0C2FA0021084638
:1002600000F052FA06E000BF0821034800F039F917
:100270000028F9D010BD00000018014010B5102072
:1002800000F026F8012818D1102000F01BF80A20F1
:1002900000F0A6FA1021094800F023F930B90A202D
:1002A00000F09EFA0021012000F02EFA00BF10217C
:1002B000024800F016F90028F9D010BD00180140DE
:1002C00070470000014908607047000014040140B5
:1002D000014600200022074B1B6803EA0102054B80
:1002E00014331B680B4013B10AB1012000E0002059
:1002F0007047000000040140002123498279002A50
:100300003AD00A46126803689A430B461A600A1DDF
:10031000126803689A430B1D1A60027911440A6837
:1003200003681A430A60184A0832126803689A433D
:10033000154B08331A601A1D126803689A43124B52
:100340000C331A604279102A0ED11A1F1268036802
:100350001A430D4B08331A601A1D126803681A43BA
:10036000094B0C331A600DE00749427911440A68C1
:1003700003681A430A6005E0027911440A680368B9
:100380009A430A60704700000004014030B5002223
:100390008B071C0F0F2303FA04F20B4B8C1053F83E
:1003A00024309343084C8D1044F8253023468C109C
:1003B00053F824308C07240F00FA04F42343024C32
:1003C0008D1044F8253030BD080001402DE9F04182
:1003D000024600250026002000230024002791F873
:1003E00003C00CF00F0591F803C00CF0100CBCF129
:1003F000000F03D091F802C04CEA050591F800C047
:10040000BCF1000F31D0146800202BE04FF0010C3C
:100410000CFA00F3B1F800C00CEA03069E4220D1AA
:1004200083004FF00F0C0CFA03F7BC4305FA03FCF2
:100430004CEA040491F803C0BCF1280F06D14FF038
:10044000010C0CFA00FCC2F814C00AE091F803C0D9
:10045000BCF1480F05D14FF0010C0CFA00FCC2F8BA
:1004600010C0401C0828D1D31460B1F800C0BCF102
:10047000FF0F34DD546800202EE000F1080C4FF02F
:10048000010808FA0CF3B1F800C00CEA03069E421A
:1004900021D183004FF00F0C0CFA03F7BC4305FA8F
:1004A00003FC4CEA040491F803C0BCF1280F05D109
:1004B00000F1080C08FA0CF8C2F8148091F803C097
:1004C000BCF1480F07D100F1080C4FF0010808FA01
:1004D0000CF8C2F81080401C0828CED35460BDE848
:1004E000F0810246002093680B400BB1012000E030
:1004F00000207047416170470161704700BFFEE70F
:100500001FB50121084600F0CFF90121042000F0B9
:10051000CBF90121402000F0C7F90120ADF80C0013
:1005200028208DF80F0003208DF80E0003A9444801
:10053000FFF74CFF1C20ADF80C0048208DF80F0091
:1005400003208DF80E0003A93E48FFF73FFF00216E
:100550000846FFF71BFF02210420FFF717FF0321C6
:100560000420FFF713FF04210846FFF70FFF0120C7
:10057000019000208DF8080008208DF80900012066
:100580008DF80A0001A8FFF7B7FE1C20019000209B
:100590008DF808000C208DF8090001208DF80A0064
:1005A00001A8FFF7A9FE4FF4C06000F071F9062022
:1005B0008DF8000000208DF8010001208DF8020068
:1005C0008DF80300684600F02BF94FF4C06000F08E
:1005D0005FF908208DF8000000208DF8010002204E
:1005E0008DF8020001208DF80300684600F018F92C
:1005F0004FF4C06000F04CF909208DF80000002095
:100600008DF8010003208DF8020001208DF8030011
:10061000684600F005F94FF4C06000F039F90A208F
:100620008DF8000000208DF8010004208DF80200F4
:1006300001208DF80300684600F0F2F81FBD0000AD
:10064000000801400018014010B5044604B3012120
:100650002048FFF74FFF02211E48FFF74BFF042100
:100660001C48FFF747FF08211A48FFF743FF1021F6
:100670001848FFF73FFF20211648FFF73BFF4021B6
:100680001448FFF737FF80211248FFF733FF1FE0C0
:1006900001211048FFF730FF02210E48FFF72CFF21
:1006A00004210C48FFF728FF08210A48FFF724FF20
:1006B00010210848FFF720FF20210648FFF71CFF04
:1006C00040210448FFF718FF80210248FFF714FF7C
:1006D00010BD00000010014008B50121102000F0FD
:1006E000E3F8FF20ADF8000010208DF80300032090
:1006F0008DF8020069460348FFF768FE0020FFF707
:10070000A3FF08BD0010014070B504460D467DB33F
:10071000082C2ED2DFE804F004090E13181D22273E
:1007200001212E48FFF7E6FE24E002212B48FFF7C7
:10073000E1FE1FE004212948FFF7DCFE1AE0082152
:100740002648FFF7D7FE15E010212448FFF7D2FE18
:1007500010E020212148FFF7CDFE0BE040211F488B
:10076000FFF7C8FE06E080211C48FFF7C3FE01E04A
:1007700001E000BF31E0082C2DD2DFE804F00409CD
:100780000E13181D222701211448FFF7B5FE23E0A0
:1007900002211248FFF7B0FE1EE004210F48FFF7C8
:1007A000ABFE19E008210D48FFF7A6FE14E010216A
:1007B0000A48FFF7A1FE0FE020210848FFF79CFE42
:1007C0000AE040210548FFF797FE05E08021034835
:1007D000FFF792FE00E000BF00BF70BD00100140B7
:1007E000014642F228324A434FF0E0235A61012287
:1007F0001A6100229A6100BF4FF0E022106900F0F8
:1008000001021AB100F48032002AF5D000224FF024
:10081000E0231A619A61704700BFFEE7704700004D
:1008200070B5002100230F22C47804B3154C24684E
:1008300004F4E064C4F5E064210AC1F10403CA4091
:10084000447804FA03F184781440214309010E4CE2
:100850000678A155047804F01F050124AC40057802
:100860006D11AD0005F1E025C5F8004109E00478FF
:1008700004F01F050124AC40044D0678761145F8BC
:10088000264070BD0CED00E000E400E080E100E0F7
:1008900002490143024A1160704700000000FA0556
:1008A0000CED00E07047000029B1064A926902434E
:1008B000044B9A6104E0034A92698243014B9A61B6
:1008C000704700000010024030B5002100220024D3
:1008D00000232D4D6D6805F00C0121B1042905D0D0
:1008E000082923D105E0294D056022E0274D056048
:1008F0001FE0254D6D6805F47012234D6D6805F4F9
:100900008034022505EB92421CB9214D5543056008
:100910000BE01D4D6D6805F400351DB11C4D5543B0
:10092000056002E0194D5543056002E0174D056072
:1009300000BF00BF144D6D6805F0F0010909154DA9
:100940006B5C0568DD4045600F4D6D6805F4E06146
:10095000090A104D6B5C4568DD4085600A4D6D6885
:1009600005F46051C90A0B4D6B5C4568DD40C560FC
:10097000054D6D6805F44041890B074D6B5CC568FA
:10098000B5FBF3F5056130BD0010024000127A009E
:1009900000093D000100002011000020704710B543
:1009A00000F002F810BD00000CB50020019000908E
:1009B0003348006840F480303149086000BF304857
:1009C000006800F4003000900198401C01900098ED
:1009D00018B90198B0F5A06FF1D12948006800F46A
:1009E000003010B10120009001E00020009000983C
:1009F000012843D12348006840F0100021490860D5
:100A00000846006820F0030008600846006840F0CF
:100A1000020008601A484068194948600846406862
:100A200048600846406840F4806048600846406876
:100A300020F47C1048600846406840F4E8104860A4
:100A40000846006840F08070086000BF0C480068ED
:100A500000F000700028F9D00948406820F0030039
:100A6000074948600846406840F00200486000BFFF
:100A70000348406800F00C000828F9D10CBD0000C4
:100A800000100240002002407047000010B51348DB
:100A9000006840F0010011490860084640681049AC
:100AA00008400E494860084600680E4908400B4956
:100AB00008600846006820F4802008600846406806
:100AC00020F4FE0048604FF41F008860FFF767FFC6
:100AD0004FF000600449086010BD000000100240A3
:100AE0000000FFF8FFFFF6FE08ED00E010B5402122
:100AF0000D4800F077F840F225510B4800F094F8CB
:100B000080B1094800F04CF908490870084601789E
:100B1000054800F04AF900BF8021034800F077F84B
:100B20000028F9D010BD000000380140000000206E
:100B300000B587B0012144F20500FFF7B5FE4FF480
:100B40000070ADF8180003208DF81A0018208DF8F9
:100B50001B0006A92148FFF739FC4FF48060ADF86F
:100B6000180004208DF81B0006A91C48FFF72EFC76
:100B70004FF4C060FFF78CFE25208DF81400002094
:100B80008DF8150001208DF816008DF8170005A8C6
:100B9000FFF746FE4FF4165001900020ADF8080014
:100BA000ADF80A00ADF80C00ADF810000C20ADF85F
:100BB0000E0001A90A4800F087F80121084800F05A
:100BC0001AF8012240F22551054800F057F840215B
:100BD000034800F007F807B000BD0000000801401E
:100BE0000038014001F40072B2F5007F00D100BF6F
:100BF000CA430280704721B1828942F40052828147
:100C000004E082894DF6FF731A40828170470246E4
:100C10000020B1F5007F00D100BF13880B400BB15D
:100C2000012000E00020704770B502460024002338
:100C30000025002040F66A16B14200D100BFC1F382
:100C4000421501F01F03012606FA03F3012D02D11C
:100C50009689334006E0022D02D1168A334001E026
:100C6000968A33400C12012606FA04F416883440A2
:100C700013B10CB1012000E0002070BDF0B50346B7
:100C8000002400260025002040F66A17B94200D152
:100C900000BF1846C1F3421401F01F06012707FAEE
:100CA00006F5012C01D10C3004E0022C01D11030EA
:100CB00000E014301AB107682F43076002E00768AC
:100CC000AF430760F0BD00002DE9F04786B0054650
:100CD0000E460024A24600BFA1460027B08900B1FD
:100CE00000BF2F462C8A4CF6FF700440F088044366
:100CF0002C82AC894EF6F3100440B0883189084349
:100D0000718908430443AC81AC8A4FF6FF4004402C
:100D1000B0890443AC8201A8FFF7D6FD1F48874283
:100D200002D1DDF810A001E0DDF80CA0A88900F4E4
:100D3000004040B10AEBCA0000EB0A1031684900DC
:100D4000B0FBF1F807E00AEBCA0000EB0A103168CB
:100D50008900B0FBF1F86420B8FBF0F00401200931
:100D6000642101FB1089A88900F4004040B13220C1
:100D700000EBC900B0FBF1F000F00700044308E00D
:100D8000322000EB09106421B0FBF1F000F00F00FD
:100D900004432C8106B0BDE8F08700000038014014
:100DA00001468888C0F308007047C1F308028280BA
:100DB000704700BFFEE70000014A024900F013B887
:100DC000090E00081800002002E008C8121F08C120
:100DD000002AFAD170477047002001E001C1121FBC
:100DE000002AFBD170472DE9F04116460F46044614
:100DF000002503E03946B047641C6D1C20780028AC
:100E0000F8D12846BDE8F08170B504460D46E1B240
:100E10000548FFF7CAFF00BF80210348FFF7F7FE30
:100E20000028F9D0204670BD00380140FFF7AEF928
:100E300016E00CA0FFF7C0FF0120FFF705FC0CA097
:100E4000FFF7BAFF40F2DC50FFF7CAFC0020FFF7C3
:100E5000FBFB0BA0FFF7B0FF40F2DC50FFF7C0FC3C
:100E6000E7E700004665656420646F67210D0A00AE
:100E70004C4544206C69676874210D0A000000002D
:100E80004C454420646965206F7574210D0A00008B
:100E9000B00E0008000000201C000000C80D000873
:100EA000CC0E00081C00002004040000D80D00082F
:100EB0000000000000010203040102030406070809
:0C0EC00009020406080000000000000009
:0400000508000131BD
:00000001FF
